:100000000C942A000C943F000C943F000C943F0089
:100010000C943F000C943F000C943F000C943F0064
:100020000C943F000C943F000C943F000C943F0054
:100030000C943F000C943F000C943F000C943F0044
:100040000C943F000C943F000C943F000C943F0034
:100050000C943F0011241FBECFE5D8E0DEBFCDBF1A
:1000600010E0A0E6B0E0E4EEF2E002C005900D92F0
:10007000A837B107D9F70E945A010C9470010C946B
:10008000000090E0880F991FFC01E859FF4F019094
:10009000F081E02D408121E030E001C0220F6A951F
:1000A000EAF72095342F3223308380599F4FDC01AB
:1000B000ED91FC91808128232083089590E0880FA2
:1000C000991FFC01E859FF4F0190F081E02D40811C
:1000D00021E030E001C0220F6A95EAF7322F309517
:1000E0003423308380599F4FDC01ED91FC91808156
:1000F000282B2083089590E0880F991FFC01E85970
:10010000FF4F0190F081E02D408121E030E001C0FF
:10011000220F6A95EAF7342F322B308380599F4F94
:10012000DC01ED91FC9180812095282320830895A6
:1001300090E0880F991FFC01E859FF4F0190F08172
:10014000E02D408121E030E001C0220F6A95EAF7FE
:10015000342F322B308380599F4FDC01ED91FC917D
:100160008081282B20830895E82FF0E0EE0FFF1FF9
:10017000E05AFF4F0190F081E02D208130E0062E03
:1001800002C0359527950A94E2F720FD0C9498005B
:100190000C947B00E82FF0E0EE0FFF1FE05AFF4FBA
:1001A0000190F081E02D808190E002C095958795C7
:1001B0006A95E2F781700895E82FF0E0EE0FFF1FD7
:1001C000E059FF4F0190F081E02D808190E002C066
:1001D000959587956A95E2F78170089590E0880F6C
:1001E000991FFC01E059FF4F0190F081E02D108232
:1001F00088599F4FDC01ED91FC911082089590E0A9
:10020000880F991FFC01E859FF4F0190F081E02D04
:10021000108280599F4FDC01ED91FC918FEF80831C
:10022000089590E0880F991FFC01E859FF4F019055
:10023000F081E02D2FEF208380599F4FDC01ED915D
:10024000FC911082089590E0880F991FFC01E059FD
:10025000FF4F0190F081E02D2FEF208388599F4FB1
:10026000DC01ED91FC9120830895E82FF0E0EE0F82
:10027000FF1FE05AFF4F0190F081E02D9081911116
:100280000C9411010C942301E82FF0E0EE0FFF1FF6
:10029000E05AFF4F0190F081E02D80810895E82F12
:1002A000F0E0EE0FFF1FE059FF4F0190F081E02DCD
:1002B00080810895C0E0DC2FD7706D2F81E00E940F
:1002C00098002FEF84E39CE0215080409040E1F7BC
:1002D00000C00000CF5F6D2F81E00E947B00EBCF5C
:0402E000F894FFCFC0
:1002E40039003600330030003A0037003400310062
:0802F4003B0038003500320028
:00000001FF
