:100000000C942A000C943F000C943F000C943F0089
:100010000C943F000C943F000C943F000C943F0064
:100020000C943F000C943F000C943F000C943F0054
:100030000C943F000C943F000C943F000C943F0044
:100040000C943F000C943F000C943F000C943F0034
:100050000C943F0011241FBECFE5D8E0DEBFCDBF1A
:1000600010E0A0E6B0E0E2EFF1E002C005900D92F2
:10007000A837B107D9F70E94F3000C94F7000C944D
:10008000000062E081E00C948D00C0E041E06C2F44
:1000900081E00E94AE002FEF84E39CE0215080407D
:1000A0009040E1F700C00000D1E0DC0F40E06C2F91
:1000B00081E00E94AE00D83009F4D0E0CD2FE6CF29
:1000C000CF93DF9390E0880F991FFC01E859FF4F11
:1000D000A081B18121E030E001C0220F6A95EAF7EA
:1000E00080599F4FEC01E881F981822F80959C9186
:1000F000413041F0423071F4292B2C9390818923B7
:10010000808305C089238C938081282B2083DF91F5
:10011000CF91089598239C93F1CFCF93DF9390E0F4
:10012000880F991FFC01E859FF4F0190F081E02DE5
:1001300080599F4FEC01A881B981613041F0623054
:1001400051F48FEF80831C92DF91CF91089510823C
:100150008FEF8C93F9CF1C921082F6CFE82FF0E04E
:10016000EE0FFF1FE059FF4F0190F081E02D81E07D
:1001700090E001C0880F6A95EAF79081413019F448
:10018000892B8083089580958923FBCFE82FF0E0A9
:10019000EE0FFF1FE059FF4F0190F081E02D61301D
:1001A00019F48FEF8083089510820895E82FF0E00E
:1001B000EE0FFF1FE05AFF4F0190F081E02D80818C
:1001C00090E002C0959587956A95E2F78170089551
:1001D000E82FF0E0EE0FFF1FE05AFF4F0190F08193
:1001E000E02D808108950E9441000E944500F8940E
:0201F000FFCF3F
:1001F20039003600330030003A0037003400310055
:080202003B003800350032001A
:00000001FF
