:100000000C942A000C943F000C943F000C943F0089
:100010000C943F000C943F000C943F000C943F0064
:100020000C943F000C943F000C943F000C943F0054
:100030000C943F000C943F000C943F000C943F0044
:100040000C943F000C943F000C943F000C943F0034
:100050000C943F0011241FBECFE5D8E0DEBFCDBF1A
:1000600010E0A0E6B0E0EAE5F3E002C005900D92F2
:10007000A837B107D9F70E9487010C94AB010C9403
:100080000000CF93C82F61E080FD12C081110BC02A
:1000900081E00E942C0161E083E00E94E500811173
:1000A000FACFCF91089561E081E00E9496006C2F15
:1000B00081E00E94B300EFCF90E0880F991FFC0110
:1000C000E859FF4F0190F081E02D408121E030E0C0
:1000D00001C0220F6A95EAF72095342F322330832E
:1000E00080599F4FDC01ED91FC9180812823208372
:1000F000089590E0880F991FFC01E859FF4F019087
:10010000F081E02D408121E030E001C0220F6A95AE
:10011000EAF7322F30953423308380599F4FDC012A
:10012000ED91FC918081282B2083089590E0880F29
:10013000991FFC01E859FF4F0190F081E02D4081AB
:1001400021E030E001C0220F6A95EAF7342F322B0C
:10015000308380599F4FDC01ED91FC918081209587
:1001600028232083089590E0880F991FFC01E85907
:10017000FF4F0190F081E02D408121E030E001C08F
:10018000220F6A95EAF7342F322B308380599F4F24
:10019000DC01ED91FC918081282B20830895E82FCC
:1001A000F0E0EE0FFF1FE05AFF4F0190F081E02DCD
:1001B000208130E0062E02C0359527950A94E2F79B
:1001C00020FD0C94B3000C949600E82FF0E0EE0FA5
:1001D000FF1FE05AFF4F0190F081E02D808190E0F9
:1001E00002C0959587956A95E2F781700895E82F8A
:1001F000F0E0EE0FFF1FE059FF4F0190F081E02D7E
:10020000808190E002C0959587956A95E2F78170AC
:10021000089590E0880F991FFC01E059FF4F01906D
:10022000F081E02D108288599F4FDC01ED91FC9107
:100230001082089590E0880F991FFC01E859FF4F44
:100240000190F081E02D108280599F4FDC01ED91EB
:10025000FC918FEF8083089590E0880F991FFC0137
:10026000E859FF4F0190F081E02D2FEF2083805956
:100270009F4FDC01ED91FC911082089590E0880F72
:10028000991FFC01E059FF4F0190F081E02D2FEF05
:10029000208388599F4FDC01ED91FC9120830895C4
:1002A00090E0880F991FFC01E859FF4F0190F08101
:1002B000E02D2FEF208380599F4FDC01ED91FC91C1
:1002C00060830895E82FF0E0EE0FFF1FE05AFF4F24
:1002D0000190F081E02D908191110C942C010C94EF
:1002E0003E01E82FF0E0EE0FFF1FE05AFF4F0190B4
:1002F000F081E02D80810895E82FF0E0EE0FFF1FE0
:10030000E059FF4F0190F081E02D8081089580E059
:100310000E94410061E083E00E945C00C0E0D7E001
:1003200061E083E00E94E5008823D1F3CF5F8C2F4A
:100330006D2F0E949F01892F0E944100F1CF991BD0
:1003400079E004C0991F961708F0961B881F7A95CC
:0A035000C9F780950895F894FFCFD7
:10035A0039003600330030003A00370034003100EB
:08036A003B00380035003200B1
:00000001FF
