:100000000C942A000C943F000C943F000C943F0089
:100010000C943F000C943F000C943F000C943F0064
:100020000C943F000C943F000C943F000C943F0054
:100030000C943F000C943F000C943F000C943F0044
:100040000C943F000C943F000C943F000C943F0034
:100050000C943F0011241FBECFE5D8E0DEBFCDBF1A
:1000600010E0A0E6B0E0E4E4F2E002C005900D92FA
:10007000A837B107D9F70E9410010C9420010C9405
:10008000000062E081E00E94AA0040E061E083E0BD
:100090000C947D00CF93C82F41E061E080FD15C036
:1000A00081110CC060E081E00E94E30061E083E028
:1000B0000E94F3008111FACFCF91089540E061E0F2
:1000C00081E00E94CB0041E06C2F81E00E94CB00D8
:1000D000EDCF80E00E944A00C0E0D7E061E083E01D
:1000E0000E94F3008823D1F3CF5F8C2F6D2F0E94E5
:1000F0001401892F0E944A00F1CFCF93DF9390E043
:10010000880F991FFC01E859FF4FA081B18121E0C0
:1001100030E001C0220F6A95EAF780599F4FEC0149
:10012000E881F981822F80959C91413041F04230E5
:1001300071F4292B2C9390818923808305C0892316
:100140008C938081282B2083DF91CF910895982371
:100150009C93F1CFCF93DF9390E0880F991FFC0120
:10016000E859FF4F0190F081E02D80599F4FEC013D
:10017000A881B981613041F0623051F48FEF808302
:100180001C92DF91CF91089510828FEF8C93F9CF5D
:100190001C921082F6CFE82FF0E0EE0FFF1FE0591F
:1001A000FF4F0190F081E02D81E090E001C0880FC9
:1001B0006A95EAF79081413019F4892B808308957C
:1001C00080958923FBCFE82FF0E0EE0FFF1FE05969
:1001D000FF4F0190F081E02D613019F48FEF8083A3
:1001E000089510820895E82FF0E0EE0FFF1FE05A07
:1001F000FF4F0190F081E02D808190E002C0959545
:1002000087956A95E2F781700895E82FF0E0EE0F88
:10021000FF1FE05AFF4F0190F081E02D808108958B
:100220000E9441000E946900991B79E004C0991F57
:10023000961708F0961B881F7A95C9F78095089540
:04024000F894FFCF60
:1002440039003600330030003A0037003400310002
:080254003B00380035003200C8
:00000001FF
